{
  "contractName": "Pausable",
  "abi": [
    {
      "constant": false,
      "inputs": [],
      "name": "unpause",
      "outputs": [
        {
          "name": "",
          "type": "bool"
        }
      ],
      "payable": false,
      "stateMutability": "nonpayable",
      "type": "function"
    },
    {
      "constant": true,
      "inputs": [],
      "name": "paused",
      "outputs": [
        {
          "name": "",
          "type": "bool"
        }
      ],
      "payable": false,
      "stateMutability": "view",
      "type": "function"
    },
    {
      "constant": false,
      "inputs": [],
      "name": "pause",
      "outputs": [
        {
          "name": "",
          "type": "bool"
        }
      ],
      "payable": false,
      "stateMutability": "nonpayable",
      "type": "function"
    },
    {
      "constant": true,
      "inputs": [],
      "name": "owner",
      "outputs": [
        {
          "name": "",
          "type": "address"
        }
      ],
      "payable": false,
      "stateMutability": "view",
      "type": "function"
    },
    {
      "constant": false,
      "inputs": [
        {
          "name": "newOwner",
          "type": "address"
        }
      ],
      "name": "transferOwnership",
      "outputs": [],
      "payable": false,
      "stateMutability": "nonpayable",
      "type": "function"
    },
    {
      "inputs": [],
      "payable": false,
      "stateMutability": "nonpayable",
      "type": "constructor"
    },
    {
      "anonymous": false,
      "inputs": [],
      "name": "Pause",
      "type": "event"
    },
    {
      "anonymous": false,
      "inputs": [],
      "name": "Unpause",
      "type": "event"
    }
  ],
  "bytecode": "0x606060405260008060146101000a81548160ff021916908315150217905550341561002957600080fd5b336000806101000a81548173ffffffffffffffffffffffffffffffffffffffff021916908373ffffffffffffffffffffffffffffffffffffffff16021790555061044c806100786000396000f30060606040526004361061006d576000357c0100000000000000000000000000000000000000000000000000000000900463ffffffff1680633f4ba83a146100725780635c975abb1461009f5780638456cb59146100cc5780638da5cb5b146100f9578063f2fde38b1461014e575b600080fd5b341561007d57600080fd5b610085610187565b604051808215151515815260200191505060405180910390f35b34156100aa57600080fd5b6100b261024c565b604051808215151515815260200191505060405180910390f35b34156100d757600080fd5b6100df61025f565b604051808215151515815260200191505060405180910390f35b341561010457600080fd5b61010c610326565b604051808273ffffffffffffffffffffffffffffffffffffffff1673ffffffffffffffffffffffffffffffffffffffff16815260200191505060405180910390f35b341561015957600080fd5b610185600480803573ffffffffffffffffffffffffffffffffffffffff1690602001909190505061034b565b005b60008060009054906101000a900473ffffffffffffffffffffffffffffffffffffffff1673ffffffffffffffffffffffffffffffffffffffff163373ffffffffffffffffffffffffffffffffffffffff161415156101e457600080fd5b600060149054906101000a900460ff1615156101ff57600080fd5b60008060146101000a81548160ff0219169083151502179055507f7805862f689e2f13df9f062ff482ad3ad112aca9e0847911ed832e158c525b3360405160405180910390a16001905090565b600060149054906101000a900460ff1681565b60008060009054906101000a900473ffffffffffffffffffffffffffffffffffffffff1673ffffffffffffffffffffffffffffffffffffffff163373ffffffffffffffffffffffffffffffffffffffff161415156102bc57600080fd5b600060149054906101000a900460ff161515156102d857600080fd5b6001600060146101000a81548160ff0219169083151502179055507f6985a02210a168e66602d3235cb6db0e70f92b3ba4d376a33c0f3d9434bff62560405160405180910390a16001905090565b6000809054906101000a900473ffffffffffffffffffffffffffffffffffffffff1681565b6000809054906101000a900473ffffffffffffffffffffffffffffffffffffffff1673ffffffffffffffffffffffffffffffffffffffff163373ffffffffffffffffffffffffffffffffffffffff161415156103a657600080fd5b600073ffffffffffffffffffffffffffffffffffffffff168173ffffffffffffffffffffffffffffffffffffffff1614151561041d57806000806101000a81548173ffffffffffffffffffffffffffffffffffffffff021916908373ffffffffffffffffffffffffffffffffffffffff1602179055505b505600a165627a7a72305820a4041a4f5ca9ee5d1f5cff12980520334f025f873cdb7b3677c694d9e1ad3a9a0029",
  "source": "pragma solidity ^0.4.17;\n\nlibrary SafeMath {\n  function mul(uint256 a, uint256 b) internal pure returns (uint256) {\n    uint256 c = a * b;\n    assert(a == 0 || c / a == b);\n    return c;\n  }\n\n  function div(uint256 a, uint256 b) internal pure returns (uint256) {\n    // assert(b > 0); // Solidity automatically throws when dividing by 0\n    uint256 c = a / b;\n    // assert(a == b * c + a % b); // There is no case in which this doesn't hold\n    return c;\n  }\n\n  function sub(uint256 a, uint256 b) internal pure returns (uint256) {\n    assert(b <= a);\n    return a - b;\n  }\n\n  function add(uint256 a, uint256 b) internal pure returns (uint256) {\n    uint256 c = a + b;\n    assert(c >= a);\n    return c;\n  }\n}\n\ncontract ApproveAndCallReceiver {\n    function receiveApproval(address from, uint256 _amount, address _token, bytes _data) public;\n}\n\ncontract TokenFactoryInterface {\n\n    function createCloneToken(\n        address _parentToken,\n        uint _snapshotBlock,\n        string _tokenName,\n        string _tokenSymbol\n      ) public returns (ServusToken newToken);\n}\n\n/**\n * @title Controllable\n * @dev The Controllable contract has an controller address, and provides basic authorization control\n * functions, this simplifies the implementation of \"user permissions\".\n */\ncontract Controllable {\n  address public controller;\n\n\n  /**\n   * @dev The Ownable constructor sets the original `owner` of the contract to the sender account.\n   */\n  function Controllable() public {\n    controller = msg.sender;\n  }\n\n  /**\n   * @dev Throws if called by any account other than the owner.\n   */\n  modifier onlyController() {\n    require(msg.sender == controller);\n    _;\n  }\n\n  /**\n   * @dev Allows the current owner to transfer control of the contract to a newOwner.\n   * @param newController The address to transfer ownership to.\n   */\n  function transferControl(address newController) public onlyController {\n    if (newController != address(0)) {\n      controller = newController;\n    }\n  }\n\n}\n\n/**\n * @title ServusToken (SRV)\n * Standard Mintable ERC20 Token\n * https://github.com/ethereum/EIPs/issues/20\n * Based on code by FirstBlood:\n * https://github.com/Firstbloodio/token/blob/master/smart_contract/FirstBloodToken.sol\n */\ncontract ServusTokenInterface is Controllable {\n\n  event Mint(address indexed to, uint256 amount);\n  event MintFinished();\n  event ClaimedTokens(address indexed _token, address indexed _owner, uint _amount);\n  event NewCloneToken(address indexed _cloneToken, uint _snapshotBlock);\n  event Approval(address indexed _owner, address indexed _spender, uint256 _amount);\n  event Transfer(address indexed from, address indexed to, uint256 value);\n\n  function totalSupply() public constant returns (uint);\n  function totalSupplyAt(uint _blockNumber) public constant returns(uint);\n  function balanceOf(address _owner) public constant returns (uint256 balance);\n  function balanceOfAt(address _owner, uint _blockNumber) public constant returns (uint);\n  function transfer(address _to, uint256 _amount) public returns (bool success);\n  function transferFrom(address _from, address _to, uint256 _amount) public returns (bool success);\n  function approve(address _spender, uint256 _amount) public returns (bool success);\n  function approveAndCall(address _spender, uint256 _amount, bytes _extraData) public returns (bool success);\n  function allowance(address _owner, address _spender) public constant returns (uint256 remaining);\n  function mint(address _owner, uint _amount) public returns (bool);\n  function importPresaleBalances(address[] _addresses, uint256[] _balances, address _presaleAddress) public returns (bool);\n  function lockPresaleBalances() public returns (bool);\n  function finishMinting() public returns (bool);\n  function enableTransfers(bool _value) public;\n  function enableMasterTransfers(bool _value) public;\n  function createCloneToken(uint _snapshotBlock, string _cloneTokenName, string _cloneTokenSymbol) public returns (address);\n\n}\n/**\n * @title Ownable\n * @dev The Ownable contract has an owner address, and provides basic authorization control\n * functions, this simplifies the implementation of \"user permissions\".\n */\ncontract Ownable {\n  address public owner;\n\n\n  /**\n   * @dev The Ownable constructor sets the original `owner` of the contract to the sender account.\n   */\n  function Ownable() public {\n    owner = msg.sender;\n  }\n\n  /**\n   * @dev Throws if called by any account other than the owner.\n   */\n  modifier onlyOwner() {\n    require(msg.sender == owner);\n    _;\n  }\n\n  /**\n   * @dev Allows the current owner to transfer control of the contract to a newOwner.\n   * @param newOwner The address to transfer ownership to.\n   */\n  function transferOwnership(address newOwner) public onlyOwner {\n    if (newOwner != address(0)) {\n      owner = newOwner;\n    }\n  }\n\n}\n\ncontract ServusToken is Controllable {\n\n  using SafeMath for uint256;\n  ServusTokenInterface public parentToken;\n  TokenFactoryInterface public tokenFactory;\n\n  string public name;\n  string public symbol;\n  string public version;\n  uint8 public decimals;\n\n  uint256 public parentSnapShotBlock;\n  uint256 public creationBlock;\n  bool public transfersEnabled;\n\n  bool public masterTransfersEnabled;\n  address public masterWallet = 0x740A1B714B39E3E8126BD87CD6C9171b3D8c2e91;\n  \n\n\n  struct Checkpoint {\n    uint128 fromBlock;\n    uint128 value;\n  }\n\n  Checkpoint[] totalSupplyHistory;\n  mapping(address => Checkpoint[]) balances;\n  mapping (address => mapping (address => uint)) allowed;\n\n  bool public mintingFinished = false;\n  bool public presaleBalancesLocked = false;\n\n  uint256 public constant TOTAL_PRESALE_TOKENS = 28960000000000000;\n\n  event Mint(address indexed to, uint256 amount);\n  event MintFinished();\n  event ClaimedTokens(address indexed _token, address indexed _owner, uint _amount);\n  event NewCloneToken(address indexed cloneToken);\n  event Approval(address indexed _owner, address indexed _spender, uint256 _amount);\n  event Transfer(address indexed from, address indexed to, uint256 value);\n\n\n\n\n  function ServusToken (\n    address _tokenFactory,\n    address _parentToken,\n    uint256 _parentSnapShotBlock,\n    string _tokenName,\n    string _tokenSymbol\n    ) \n    public \n    {\n      tokenFactory = TokenFactoryInterface(_tokenFactory);\n      parentToken = ServusTokenInterface(_parentToken);\n      parentSnapShotBlock = _parentSnapShotBlock;\n      name = _tokenName;\n      symbol = _tokenSymbol;\n      decimals = 6;\n      transfersEnabled = false;\n      masterTransfersEnabled = false;\n      creationBlock = block.number;\n      version = \"0.1\";\n  }\n\n  function() public payable {\n    revert();\n  }\n\n\n  /**\n  * Returns the total Servus token supply at the current block\n  * @return total supply {uint256}\n  */\n  function totalSupply() public constant returns (uint256) {\n    return totalSupplyAt(block.number);\n  }\n\n  /**\n  * Returns the total Servus token supply at the given block number\n  * @param _blockNumber {uint256}\n  * @return total supply {uint256}\n  */\n  function totalSupplyAt(uint256 _blockNumber) public constant returns(uint256) {\n    // These next few lines are used when the totalSupply of the token is\n    //  requested before a check point was ever created for this token, it\n    //  requires that the `parentToken.totalSupplyAt` be queried at the\n    //  genesis block for this token as that contains totalSupply of this\n    //  token at this block number.\n    if ((totalSupplyHistory.length == 0) || (totalSupplyHistory[0].fromBlock > _blockNumber)) {\n        if (address(parentToken) != 0) {\n            return parentToken.totalSupplyAt(min(_blockNumber, parentSnapShotBlock));\n        } else {\n            return 0;\n        }\n\n    // This will return the expected totalSupply during normal situations\n    } else {\n        return getValueAt(totalSupplyHistory, _blockNumber);\n    }\n  }\n\n  /**\n  * Returns the token holder balance at the current block\n  * @param _owner {address}\n  * @return balance {uint256}\n   */\n  function balanceOf(address _owner) public constant returns (uint256 balance) {\n    return balanceOfAt(_owner, block.number);\n  }\n\n  /**\n  * Returns the token holder balance the the given block number\n  * @param _owner {address}\n  * @param _blockNumber {uint256}\n  * @return balance {uint256}\n  */\n  function balanceOfAt(address _owner, uint256 _blockNumber) public constant returns (uint256) {\n    // These next few lines are used when the balance of the token is\n    //  requested before a check point was ever created for this token, it\n    //  requires that the `parentToken.balanceOfAt` be queried at the\n    //  genesis block for that token as this contains initial balance of\n    //  this token\n    if ((balances[_owner].length == 0) || (balances[_owner][0].fromBlock > _blockNumber)) {\n        if (address(parentToken) != 0) {\n            return parentToken.balanceOfAt(_owner, min(_blockNumber, parentSnapShotBlock));\n        } else {\n            // Has no parent\n            return 0;\n        }\n\n    // This will return the expected balance during normal situations\n    } else {\n        return getValueAt(balances[_owner], _blockNumber);\n    }\n  }\n\n  /**\n  * Standard ERC20 transfer tokens function\n  * @param _to {address}\n  * @param _amount {uint}\n  * @return success {bool}\n  */\n  function transfer(address _to, uint256 _amount) public returns (bool success) {\n    return doTransfer(msg.sender, _to, _amount);\n  }\n\n  /**\n  * Standard ERC20 transferFrom function\n  * @param _from {address}\n  * @param _to {address}\n  * @param _amount {uint256}\n  * @return success {bool}\n  */\n  function transferFrom(address _from, address _to, uint256 _amount) public returns (bool success) {\n    require(allowed[_from][msg.sender] >= _amount);\n    allowed[_from][msg.sender] -= _amount;\n    return doTransfer(_from, _to, _amount);\n  }\n\n  /**\n  * Standard ERC20 approve function\n  * @param _spender {address}\n  * @param _amount {uint256}\n  * @return success {bool}\n  */\n  function approve(address _spender, uint256 _amount) public returns (bool success) {\n    require(transfersEnabled);\n\n    //https://github.com/ethereum/EIPs/issues/20#issuecomment-263524729\n    require((_amount == 0) || (allowed[msg.sender][_spender] == 0));\n\n    allowed[msg.sender][_spender] = _amount;\n    Approval(msg.sender, _spender, _amount);\n    return true;\n  }\n\n  /**\n  * Standard ERC20 approve function\n  * @param _spender {address}\n  * @param _amount {uint256}\n  * @return success {bool}\n  */\n  function approveAndCall(address _spender, uint256 _amount, bytes _extraData) public returns (bool success) {\n    approve(_spender, _amount);\n\n    ApproveAndCallReceiver(_spender).receiveApproval(\n        msg.sender,\n        _amount,\n        this,\n        _extraData\n    );\n\n    return true;\n  }\n\n  /**\n  * Standard ERC20 allowance function\n  * @param _owner {address}\n  * @param _spender {address}\n  * @return remaining {uint256}\n   */\n  function allowance(address _owner, address _spender) public constant returns (uint256 remaining) {\n    return allowed[_owner][_spender];\n  }\n\n  /**\n  * Internal Transfer function - Updates the checkpoint ledger\n  * @param _from {address}\n  * @param _to {address}\n  * @param _amount {uint256}\n  * @return success {bool}\n  */\n  function doTransfer(address _from, address _to, uint256 _amount) internal returns(bool) {\n\n    if (msg.sender != masterWallet) {\n      require(transfersEnabled);\n    } else {\n      require(masterTransfersEnabled);\n    }\n\n    require(_amount > 0);\n    require(parentSnapShotBlock < block.number);\n    require((_to != 0) && (_to != address(this)));\n\n    // If the amount being transfered is more than the balance of the\n    // account the transfer returns false\n    uint256 previousBalanceFrom = balanceOfAt(_from, block.number);\n    require(previousBalanceFrom >= _amount);\n\n    // First update the balance array with the new value for the address\n    //  sending the tokens\n    updateValueAtNow(balances[_from], previousBalanceFrom - _amount);\n\n    // Then update the balance array with the new value for the address\n    //  receiving the tokens\n    uint256 previousBalanceTo = balanceOfAt(_to, block.number);\n    require(previousBalanceTo + _amount >= previousBalanceTo); // Check for overflow\n    updateValueAtNow(balances[_to], previousBalanceTo + _amount);\n\n    // An event to make the transfer easy to find on the blockchain\n    Transfer(_from, _to, _amount);\n    return true;\n  }\n\n\n  /**\n  * Token creation functions - can only be called by the tokensale controller during the tokensale period\n  * @param _owner {address}\n  * @param _amount {uint256}\n  * @return success {bool}\n  */\n  function mint(address _owner, uint256 _amount) public onlyController canMint returns (bool) {\n    uint256 curTotalSupply = totalSupply();\n    uint256 previousBalanceTo = balanceOf(_owner);\n\n    require(curTotalSupply + _amount >= curTotalSupply); // Check for overflow\n    require(previousBalanceTo + _amount >= previousBalanceTo); // Check for overflow\n\n    updateValueAtNow(totalSupplyHistory, curTotalSupply + _amount);\n    updateValueAtNow(balances[_owner], previousBalanceTo + _amount);\n    Transfer(0, _owner, _amount);\n    return true;\n  }\n\n  modifier canMint() {\n    require(!mintingFinished);\n    _;\n  }\n\n\n  /**\n   * Import presale balances before the start of the token sale. After importing\n   * balances, lockPresaleBalances() has to be called to prevent further modification\n   * of presale balances.\n   * @param _addresses {address[]} Array of presale addresses\n   * @param _balances {uint256[]} Array of balances corresponding to presale addresses.\n   * @return success {bool}\n   */\n  function importPresaleBalances(address[] _addresses, uint256[] _balances) public onlyController returns (bool) {\n    require(presaleBalancesLocked == false);\n\n    for (uint256 i = 0; i < _addresses.length; i++) {\n      updateValueAtNow(balances[_addresses[i]], _balances[i]);\n      Transfer(0, _addresses[i], _balances[i]);\n    }\n\n    updateValueAtNow(totalSupplyHistory, TOTAL_PRESALE_TOKENS);\n    return true;\n  }\n\n  /**\n   * Lock presale balances after successful presale balance import\n   * @return A boolean that indicates if the operation was successful.\n   */\n  function lockPresaleBalances() public onlyController returns (bool) {\n    presaleBalancesLocked = true;\n    return true;\n  }\n\n  /**\n   * Lock the minting of Servus Tokens - to be called after the presale\n   * @return {bool} success\n  */\n  function finishMinting() public onlyController returns (bool) {\n    mintingFinished = true;\n    MintFinished();\n    return true;\n  }\n\n  /**\n   * Enable or block transfers - to be called in case of emergency\n   * @param _value {bool}\n  */\n  function enableTransfers(bool _value) public onlyController {\n    transfersEnabled = _value;\n  }\n\n  /**\n   * Enable or block transfers - to be called in case of emergency\n   * @param _value {bool}\n  */\n  function enableMasterTransfers(bool _value) public onlyController {\n    masterTransfersEnabled = _value;\n  }\n\n  /**\n   * Internal balance method - gets a certain checkpoint value a a certain _block\n   * @param _checkpoints {Checkpoint[]} List of checkpoints - supply history or balance history\n   * @return value {uint256} Value of _checkpoints at _block\n  */\n  function getValueAt(Checkpoint[] storage _checkpoints, uint256 _block) constant internal returns (uint256) {\n\n      if (_checkpoints.length == 0)\n        return 0;\n      // Shortcut for the actual value\n      if (_block >= _checkpoints[_checkpoints.length-1].fromBlock)\n        return _checkpoints[_checkpoints.length-1].value;\n      if (_block < _checkpoints[0].fromBlock)\n        return 0;\n\n      // Binary search of the value in the array\n      uint256 min = 0;\n      uint256 max = _checkpoints.length-1;\n      while (max > min) {\n          uint256 mid = (max + min + 1) / 2;\n          if (_checkpoints[mid].fromBlock<=_block) {\n              min = mid;\n          } else {\n              max = mid-1;\n          }\n      }\n      return _checkpoints[min].value;\n  }\n\n\n  /**\n  * Internal update method - updates the checkpoint ledger at the current block\n  * @param _checkpoints {Checkpoint[]}  List of checkpoints - supply history or balance history\n  * @return value {uint256} Value to add to the checkpoints ledger\n   */\n  function updateValueAtNow(Checkpoint[] storage _checkpoints, uint256 _value) internal {\n      if ((_checkpoints.length == 0) || (_checkpoints[_checkpoints.length-1].fromBlock < block.number)) {\n              Checkpoint storage newCheckPoint = _checkpoints[_checkpoints.length++];\n              newCheckPoint.fromBlock = uint128(block.number);\n              newCheckPoint.value = uint128(_value);\n          } else {\n              Checkpoint storage oldCheckPoint = _checkpoints[_checkpoints.length-1];\n              oldCheckPoint.value = uint128(_value);\n          }\n  }\n\n\n  function min(uint256 a, uint256 b) internal constant returns (uint) {\n      return a < b ? a : b;\n  }\n\n  /**\n  * Clones Servus Token at the given snapshot block\n  * @param _snapshotBlock {uint256}\n  * @param _name {string} - The cloned token name\n  * @param _symbol {string} - The cloned token symbol\n  * @return clonedTokenAddress {address}\n   */\n  function createCloneToken(uint256 _snapshotBlock, string _name, string _symbol) public returns(address) {\n\n      if (_snapshotBlock == 0) {\n        _snapshotBlock = block.number;\n      }\n\n      if (_snapshotBlock > block.number) {\n        _snapshotBlock = block.number;\n      }\n\n      ServusToken cloneToken = tokenFactory.createCloneToken(\n          this,\n          _snapshotBlock,\n          _name,\n          _symbol\n        );\n\n\n      cloneToken.transferControl(msg.sender);\n\n      // An event to make the token easy to find on the blockchain\n      NewCloneToken(address(cloneToken));\n      return address(cloneToken);\n    }\n\n}\n\n/**\n * @title Pausable\n * @dev Base contract which allows children to implement an emergency stop mechanism.\n */\ncontract Pausable is Ownable {\n  event Pause();\n  event Unpause();\n\n  bool public paused = false;\n\n  function Pausable() public {}\n\n  /**\n   * @dev modifier to allow actions only when the contract IS paused\n   */\n  modifier whenNotPaused() {\n    require(!paused);\n    _;\n  }\n\n  /**\n   * @dev modifier to allow actions only when the contract IS NOT paused\n   */\n  modifier whenPaused {\n    require(paused);\n    _;\n  }\n\n  /**\n   * @dev called by the owner to pause, triggers stopped state\n   */\n  function pause() public onlyOwner whenNotPaused returns (bool) {\n    paused = true;\n    Pause();\n    return true;\n  }\n\n  /**\n   * @dev called by the owner to unpause, returns to normal state\n   */\n  function unpause() public onlyOwner whenPaused returns (bool) {\n    paused = false;\n    Unpause();\n    return true;\n  }\n}\n\n/**\n * @title Tokensale\n * Tokensale allows investors to make token purchases and assigns them tokens based\n\n * on a token per ETH rate. Funds collected are forwarded to a wallet as they arrive.\n */\ncontract TokenSale is Pausable {\n\n  using SafeMath for uint256;\n\n  ServusTokenInterface public servusToken;\n  uint256 public totalWeiRaised;\n  uint256 public tokensMinted;\n  uint256 public totalSupply;\n  uint256 public contributors;\n  uint256 public decimalsMultiplier;\n  uint256 public startTime;\n  uint256 public endTime;\n  uint256 public remainingTokens;\n  uint256 public allocatedTokens;\n\n  bool public finalized;\n\n  bool public servusTokensAllocated;\n  address public servusMultiSig = 0x0cc3e09c8a52fa0313154321be706635cdbdec37;\n\n  uint256 public constant BASE_PRICE_IN_WEI = 1000000000000000;\n  uint256 public constant PUBLIC_TOKENS = 100000000 * (10 ** 6);\n  uint256 public constant TOTAL_PRESALE_TOKENS = 50000000 * (10 ** 6);\n  uint256 public constant TOKENS_ALLOCATED_TO_SERVUS = 100000000 * (10 ** 6);\n\n\n\n  uint256 public tokenCap = PUBLIC_TOKENS - TOTAL_PRESALE_TOKENS;\n  uint256 public cap = tokenCap;\n  uint256 public weiCap = cap * BASE_PRICE_IN_WEI;\n\n  uint256 public firstDiscountPrice = (BASE_PRICE_IN_WEI * 85) / 100;\n  uint256 public secondDiscountPrice = (BASE_PRICE_IN_WEI * 90) / 100;\n  uint256 public thirdDiscountPrice = (BASE_PRICE_IN_WEI * 95) / 100;\n\n  uint256 public firstDiscountCap = (weiCap * 5) / 100;\n  uint256 public secondDiscountCap = (weiCap * 10) / 100;\n  uint256 public thirdDiscountCap = (weiCap * 20) / 100;\n\n  bool public started = false;\n\n  event TokenPurchase(address indexed purchaser, address indexed beneficiary, uint256 value, uint256 amount);\n  event NewClonedToken(address indexed _cloneToken);\n  event OnTransfer(address _from, address _to, uint _amount);\n  event OnApprove(address _owner, address _spender, uint _amount);\n  event LogInt(string _name, uint256 _value);\n  event Finalized();\n\n  function TokenSale(address _tokenAddress, uint256 _startTime, uint256 _endTime) public {\n    require(_tokenAddress != 0x0);\n    require(_startTime > 0);\n    require(_endTime > _startTime);\n\n    startTime = _startTime;\n    endTime = _endTime;\n    servusToken = ServusTokenInterface(_tokenAddress);\n\n    decimalsMultiplier = (10 ** 6);\n  }\n\n\n  /**\n   * High level token purchase function\n   */\n  function() public payable {\n    buyTokens(msg.sender);\n  }\n\n  /**\n   * Low level token purchase function\n   * @param _beneficiary will receive the tokens.\n   */\n  function buyTokens(address _beneficiary) public payable whenNotPaused whenNotFinalized {\n    require(_beneficiary != 0x0);\n    require(validPurchase());\n\n    uint256 weiAmount = msg.value;\n    uint256 priceInWei = getPriceInWei();\n    totalWeiRaised = totalWeiRaised.add(weiAmount);\n\n    uint256 tokens = weiAmount.mul(decimalsMultiplier).div(priceInWei);\n    tokensMinted = tokensMinted.add(tokens);\n    require(tokensMinted < tokenCap);\n\n    contributors = contributors.add(1);\n\n    servusToken.mint(_beneficiary, tokens);\n    TokenPurchase(msg.sender, _beneficiary, weiAmount, tokens);\n    forwardFunds();\n  }\n\n\n  /**\n   * Get the price in wei for current premium\n   * @return price {uint256}\n   */\n  function getPriceInWei() constant public returns (uint256) {\n\n    uint256 price;\n\n    if (totalWeiRaised < firstDiscountCap) {\n      price = firstDiscountPrice;\n    } else if (totalWeiRaised < secondDiscountCap) {\n      price = secondDiscountPrice;\n    } else if (totalWeiRaised < thirdDiscountCap) {\n      price = thirdDiscountPrice;\n    } else {\n      price = BASE_PRICE_IN_WEI;\n    }\n\n    return price;\n  }\n\n  /**\n  * Forwards funds to the tokensale wallet\n  */\n  function forwardFunds() internal {\n    servusMultiSig.transfer(msg.value);\n  }\n\n\n  /**\n  * Validates the purchase (period, minimum amount, within cap)\n  * @return {bool} valid\n  */\n  function validPurchase() internal constant returns (bool) {\n    uint256 current = now;\n    bool presaleStarted = (current >= startTime || started);\n    bool presaleNotEnded = current <= endTime;\n    bool nonZeroPurchase = msg.value != 0;\n    return nonZeroPurchase && presaleStarted && presaleNotEnded;\n  }\n\n  /**\n  * Returns the total Servus token supply\n  * @return totalSupply {uint256} Servus Token Total Supply\n  */\n  function totalSupply() public constant returns (uint256) {\n    return servusToken.totalSupply();\n  }\n\n  /**\n  * Returns token holder Servus Token balance\n  * @param _owner {address} Token holder address\n  * @return balance {uint256} Corresponding token holder balance\n  */\n  function balanceOf(address _owner) public constant returns (uint256) {\n    return servusToken.balanceOf(_owner);\n  }\n\n  /**\n  * Change the Servus Token controller\n  * @param _newController {address} New Servus Token controller\n  */\n  function changeController(address _newController) public {\n    require(isContract(_newController));\n    servusToken.transferControl(_newController);\n  }\n\n\n  function enableTransfers() public {\n    if (now < endTime) {\n      require(msg.sender == owner);\n    }\n    servusToken.enableTransfers(true);\n  }\n\n  function lockTransfers() public onlyOwner {\n    require(now < endTime);\n    servusToken.enableTransfers(false);\n  }\n\n  function enableMasterTransfers() public onlyOwner {\n    servusToken.enableMasterTransfers(true);\n  }\n\n  function lockMasterTransfers() public onlyOwner {\n    servusToken.enableMasterTransfers(false);\n  }\n\n  function forceStart() public onlyOwner {\n    started = true;\n  }\n\n  function allocateServusTokens() public onlyOwner whenNotFinalized {\n    require(!servusTokensAllocated);\n    servusToken.mint(servusMultiSig, TOKENS_ALLOCATED_TO_SERVUS);\n    servusTokensAllocated = true;\n  }\n\n  function finalize() public onlyOwner {\n    require(paused);\n    require(servusTokensAllocated);\n\n    servusToken.finishMinting();\n    servusToken.enableTransfers(true);\n    Finalized();\n\n    finalized = true;\n  }\n\n\n  function isContract(address _addr) constant internal returns(bool) {\n    uint size;\n    if (_addr == 0)\n      return false;\n    assembly {\n        size := extcodesize(_addr)\n    }\n    return size>0;\n  }\n\n  modifier whenNotFinalized() {\n    require(!finalized);\n    _;\n  }\n\n}",
  "sourcePath": "/Users/jmarquez/Documents/workspace/solidity-programming/contracts/TokenSale.sol",
  "compiler": {
    "name": "solc",
    "version": "0.4.19+commit.c4cbbb05.Emscripten.clang"
  },
  "schemaVersion": "1.0.1",
  "updatedAt": "2018-02-22T03:11:59.354Z"
}